{
  "contractName": "Ballot",
  "abi": [
    {
      "inputs": [
        {
          "internalType": "uint256",
          "name": "numProposals",
          "type": "uint256"
        }
      ],
      "stateMutability": "nonpayable",
      "type": "constructor"
    },
    {
      "inputs": [],
      "name": "state",
      "outputs": [
        {
          "internalType": "enum Ballot.Phase",
          "name": "",
          "type": "uint8"
        }
      ],
      "stateMutability": "view",
      "type": "function",
      "constant": true
    },
    {
      "inputs": [
        {
          "internalType": "enum Ballot.Phase",
          "name": "x",
          "type": "uint8"
        }
      ],
      "name": "changeState",
      "outputs": [],
      "stateMutability": "nonpayable",
      "type": "function"
    },
    {
      "inputs": [
        {
          "internalType": "address",
          "name": "voter",
          "type": "address"
        }
      ],
      "name": "register",
      "outputs": [],
      "stateMutability": "nonpayable",
      "type": "function"
    },
    {
      "inputs": [
        {
          "internalType": "uint256",
          "name": "candidate",
          "type": "uint256"
        }
      ],
      "name": "vote",
      "outputs": [],
      "stateMutability": "nonpayable",
      "type": "function"
    },
    {
      "inputs": [],
      "name": "getWinner",
      "outputs": [
        {
          "internalType": "uint256",
          "name": "",
          "type": "uint256"
        }
      ],
      "stateMutability": "view",
      "type": "function",
      "constant": true
    }
  ],
  "bytecode": "0x60806040526000600360006101000a81548160ff021916908360038111156200002d576200002c620001f0565b5b02179055503480156200003f57600080fd5b5060405162000df338038062000df383398181016040528101906200006591906200025f565b6003811015620000ac576040517f08c379a0000000000000000000000000000000000000000000000000000000008152600401620000a39062000318565b60405180910390fd5b336000806101000a81548173ffffffffffffffffffffffffffffffffffffffff021916908373ffffffffffffffffffffffffffffffffffffffff1602179055506002600160008060009054906101000a900473ffffffffffffffffffffffffffffffffffffffff1673ffffffffffffffffffffffffffffffffffffffff1673ffffffffffffffffffffffffffffffffffffffff1681526020019081526020016000206000018190555060005b81811015620001ba57600260405180602001604052806000815250908060018154018082558091505060019003906000526020600020016000909190919091506000820151816000015550508080620001b19062000369565b91505062000158565b506001600360006101000a81548160ff02191690836003811115620001e457620001e3620001f0565b5b021790555050620003b6565b7f4e487b7100000000000000000000000000000000000000000000000000000000600052602160045260246000fd5b600080fd5b6000819050919050565b620002398162000224565b81146200024557600080fd5b50565b60008151905062000259816200022e565b92915050565b6000602082840312156200027857620002776200021f565b5b6000620002888482850162000248565b91505092915050565b600082825260208201905092915050565b7f63616e64696461746520636f756e742073686f756c64206e6f74206c6573732060008201527f7468616e20746872656500000000000000000000000000000000000000000000602082015250565b600062000300602a8362000291565b91506200030d82620002a2565b604082019050919050565b600060208201905081810360008301526200033381620002f1565b9050919050565b7f4e487b7100000000000000000000000000000000000000000000000000000000600052601160045260246000fd5b6000620003768262000224565b91507fffffffffffffffffffffffffffffffffffffffffffffffffffffffffffffffff8203620003ab57620003aa6200033a565b5b600182019050919050565b610a2d80620003c66000396000f3fe608060405234801561001057600080fd5b5060043610610074576000357c0100000000000000000000000000000000000000000000000000000000900480630121b93f14610079578063268f1153146100955780634420e486146100b15780638e7ea5b2146100cd578063c19d93fb146100eb575b600080fd5b610093600480360381019061008e9190610625565b610109565b005b6100af60048036038101906100aa9190610677565b610220565b005b6100cb60048036038101906100c69190610702565b61031b565b005b6100d56104ea565b6040516100e2919061073e565b60405180910390f35b6100f36105d7565b60405161010091906107d0565b60405180910390f35b600280600381111561011e5761011d610759565b5b600360009054906101000a900460ff1660038111156101405761013f610759565b5b1461014a57600080fd5b6000600160003373ffffffffffffffffffffffffffffffffffffffff1673ffffffffffffffffffffffffffffffffffffffff16815260200190815260200160002090508060010160009054906101000a900460ff16806101af57506002805490508310155b156101b957600080fd5b82816002018190555060018160010160006101000a81548160ff0219169083151502179055508060000154600284815481106101f8576101f76107eb565b5b9060005260206000200160000160008282546102149190610849565b92505081905550505050565b60008054906101000a900473ffffffffffffffffffffffffffffffffffffffff1673ffffffffffffffffffffffffffffffffffffffff163373ffffffffffffffffffffffffffffffffffffffff16146102ae576040517f08c379a00000000000000000000000000000000000000000000000000000000081526004016102a590610900565b60405180910390fd5b600360009054906101000a900460ff1660038111156102d0576102cf610759565b5b8160038111156102e3576102e2610759565b5b10156102ee57600080fd5b80600360006101000a81548160ff0219169083600381111561031357610312610759565b5b021790555050565b60018060038111156103305761032f610759565b5b600360009054906101000a900460ff16600381111561035257610351610759565b5b1461035c57600080fd5b60008054906101000a900473ffffffffffffffffffffffffffffffffffffffff1673ffffffffffffffffffffffffffffffffffffffff163373ffffffffffffffffffffffffffffffffffffffff16146103ea576040517f08c379a00000000000000000000000000000000000000000000000000000000081526004016103e190610900565b60405180910390fd5b600160008373ffffffffffffffffffffffffffffffffffffffff1673ffffffffffffffffffffffffffffffffffffffff16815260200190815260200160002060010160009054906101000a900460ff161561044457600080fd5b60018060008473ffffffffffffffffffffffffffffffffffffffff1673ffffffffffffffffffffffffffffffffffffffff168152602001908152602001600020600001819055506000600160008473ffffffffffffffffffffffffffffffffffffffff1673ffffffffffffffffffffffffffffffffffffffff16815260200190815260200160002060010160006101000a81548160ff0219169083151502179055505050565b6000600380600381111561050157610500610759565b5b600360009054906101000a900460ff16600381111561052357610522610759565b5b1461052d57600080fd5b600080600280549050905060005b6002805490508110156105ac57826002828154811061055d5761055c6107eb565b5b906000526020600020016000015411156105995760028181548110610585576105846107eb565b5b906000526020600020016000015492508091505b80806105a490610920565b91505061053b565b50600280805490506105be9190610997565b8210156105ce576105cd6109c8565b5b80935050505090565b600360009054906101000a900460ff1681565b600080fd5b6000819050919050565b610602816105ef565b811461060d57600080fd5b50565b60008135905061061f816105f9565b92915050565b60006020828403121561063b5761063a6105ea565b5b600061064984828501610610565b91505092915050565b6004811061065f57600080fd5b50565b60008135905061067181610652565b92915050565b60006020828403121561068d5761068c6105ea565b5b600061069b84828501610662565b91505092915050565b600073ffffffffffffffffffffffffffffffffffffffff82169050919050565b60006106cf826106a4565b9050919050565b6106df816106c4565b81146106ea57600080fd5b50565b6000813590506106fc816106d6565b92915050565b600060208284031215610718576107176105ea565b5b6000610726848285016106ed565b91505092915050565b610738816105ef565b82525050565b6000602082019050610753600083018461072f565b92915050565b7f4e487b7100000000000000000000000000000000000000000000000000000000600052602160045260246000fd5b6004811061079957610798610759565b5b50565b60008190506107aa82610788565b919050565b60006107ba8261079c565b9050919050565b6107ca816107af565b82525050565b60006020820190506107e560008301846107c1565b92915050565b7f4e487b7100000000000000000000000000000000000000000000000000000000600052603260045260246000fd5b7f4e487b7100000000000000000000000000000000000000000000000000000000600052601160045260246000fd5b6000610854826105ef565b915061085f836105ef565b92508282019050808211156108775761087661081a565b5b92915050565b600082825260208201905092915050565b7f6f6e6c79206368616972506572736f6e2063616e206368616e6765207374617460008201527f6500000000000000000000000000000000000000000000000000000000000000602082015250565b60006108ea60218361087d565b91506108f58261088e565b604082019050919050565b60006020820190508181036000830152610919816108dd565b9050919050565b600061092b826105ef565b91507fffffffffffffffffffffffffffffffffffffffffffffffffffffffffffffffff820361095d5761095c61081a565b5b600182019050919050565b7f4e487b7100000000000000000000000000000000000000000000000000000000600052601260045260246000fd5b60006109a2826105ef565b91506109ad836105ef565b9250826109bd576109bc610968565b5b828204905092915050565b7f4e487b7100000000000000000000000000000000000000000000000000000000600052600160045260246000fdfea264697066735822122012ad63f934283c5f62d002d249c4cd37109a38ca9791c8000d078eeecaa8098564736f6c63430008150033",
  "immutableReferences": {},
  "source": "// SPDX-License-Identifier: MIT\r\npragma solidity ^0.8.17;\r\n\r\n// \r\n// \r\n// \r\n// \r\n// \r\n// \r\n\r\ncontract Ballot {\r\n    // \r\n    struct Voter {\r\n        uint256 weight; // \r\n        bool voted; // \r\n        uint256 vote; // \r\n    }\r\n\r\n    // \r\n    struct Proposal {\r\n        uint256 voteCount;\r\n    }\r\n\r\n    address chairPerson; //\r\n    mapping(address => Voter) voters; // \r\n    Proposal[] proposals; //\r\n\r\n    enum Phase {\r\n        Init,\r\n        Regs,\r\n        Vote,\r\n        Done\r\n    } //0123Regs\r\n    Phase public state = Phase.Init; //\r\n\r\n    // ()\r\n    constructor(uint256 numProposals) {\r\n        require(\r\n            numProposals >= 3,\r\n            \"candidate count should not less than three\"\r\n        );\r\n        chairPerson = msg.sender; // \r\n        voters[chairPerson].weight = 2; //2\r\n        for (uint256 prop = 0; prop < numProposals; prop++) {\r\n            proposals.push(Proposal(0)); //pushProposal(0)\r\n        }\r\n        state = Phase.Regs; // \r\n    }\r\n\r\n    function changeState(Phase x) public onlyChair {\r\n        // chairPerson\r\n        // require(msg.sender == chairPerson, \"only chairPerson can change state\");\r\n        if (x < state) revert(); //\r\n        state = x;\r\n    }\r\n\r\n    modifier validPhase(Phase x) {\r\n        require(state == x);\r\n        _;\r\n    }\r\n\r\n    modifier onlyChair() {\r\n        require(msg.sender == chairPerson, \"only chairPerson can change state\");\r\n        _;\r\n    }\r\n\r\n    // \r\n    function register(address voter) public validPhase(Phase.Regs) onlyChair {\r\n        // chairPerson\r\n        if (voters[voter].voted) {\r\n            revert(); //\r\n        }\r\n        voters[voter].weight = 1; // 1\r\n        voters[voter].voted = false; // \r\n    }\r\n\r\n    // \r\n    function vote(uint256 candidate) public validPhase(Phase.Vote) {\r\n        Voter storage sender = voters[msg.sender];\r\n        if (sender.voted || candidate >= proposals.length) {\r\n            revert();\r\n        }\r\n        sender.vote = candidate;\r\n        sender.voted = true;\r\n        proposals[candidate].voteCount += sender.weight;\r\n    }\r\n\r\n    // \r\n    function getWinner() public view validPhase(Phase.Done) returns (uint256) {\r\n        uint256 maxCount = 0; //\r\n        uint256 winner = proposals.length;\r\n        for (uint256 i = 0; i < proposals.length; i++) {\r\n            if (proposals[i].voteCount > maxCount) {\r\n                maxCount = proposals[i].voteCount;\r\n                winner = i;\r\n            }\r\n        }\r\n        // requireassertassertrequire\r\n        assert(maxCount >= proposals.length / 2); //\r\n        return winner;\r\n    }\r\n}\r\n",
  "sourcePath": "D:\\web3\\ballot_project\\contracts\\ballot.sol",
  "compiler": {
    "name": "solc",
    "version": "0.8.21+commit.d9974bed.Emscripten.clang"
  },
  "schemaVersion": "3.4.16",
  "updatedAt": "2025-07-06T14:20:25.056Z",
  "networkType": "ethereum",
  "devdoc": {
    "kind": "dev",
    "methods": {},
    "version": 1
  },
  "userdoc": {
    "kind": "user",
    "methods": {},
    "version": 1
  }
}